:020000040800F2
:1000000000000520A55300088D520008AD520008DD
:10001000B1520008B5520008B952000800000000B3
:1000200000000000000000000000000091520008E5
:10003000955200080000000099520008A9520008DB
:10004000F5530008F5530008F5530008F553000870
:10005000F5530008F5530008F5530008F553000860
:10006000F5530008F5530008F5530008F553000850
:10007000F55300089D520008F5530008F553000899
:10008000F5530008F5530008F5530008F553000830
:10009000F5530008F5530008F5530008F553000820
:1000A000F5530008F5530008F5530008F553000810
:1000B000F5530008F5530008F5530008F553000800
:1000C000F5530008F5530008F5530008F5530008F0
:1000D000F5530008F5530008F5530008F5530008E0
:1000E000F5530008F5530008F5530008F5530008D0
:1000F000F5530008F5530008F5530008F5530008C0
:10010000F5530008F5530008F5530008F5530008AF
:10011000F5530008F5530008F5530008F55300089F
:10012000F5530008F5530008F5530008F55300088F
:10013000F5530008F5530008F5530008F55300087F
:10014000F5530008F5530008F5530008F55300086F
:10015000F5530008F5530008F5530008F55300085F
:10016000F5530008F5530008F5530008F55300084F
:10017000F5530008F5530008F5530008F55300083F
:10018000F5530008F5530008F5530008F55300082F
:10019000F5530008F5530008F5530008F55300081F
:1001A000F5530008F5530008F5530008F55300080F
:1001B00010B5054C237833B9044B13B10448AFF3A1
:1001C00000800123237010BD6005002000000000A6
:1001D000FCB0000808B5034B1BB103490348AFF35B
:1001E000008008BD0000000064050020FCB000088D
:1001F00001F0FF01102A2BDB10F0070F08D010F8D8
:10020000013B013A8B422DD010F0070F42B3F6D1DB
:10021000F0B441EA012141EA014122F007047FF0F4
:1002200000070023F0E80256083C85EA010586EA4B
:10023000010685FA47F5A3FA87F586FA47F6A5FA87
:1002400087F68EB9EED1F0BC01F0FF0102F0070293
:1002500032B110F8013B013A83EA010313B1F8D13E
:100260000020704701387047002D06BF354603381F
:10027000073815F0010F07D1013015F4807F02BF58
:10028000013015F4C03F0130F0BC0138704700BFA9
:1002900081F0004102E000BF83F0004330B54FEA37
:1002A00041044FEA430594EA050F08BF90EA020FA4
:1002B0001FBF54EA000C55EA020C7FEA645C7FEA37
:1002C000655C00F0E2804FEA5454D4EB5555B8BF5A
:1002D0006D420CDD2C4480EA020281EA030382EACB
:1002E000000083EA010180EA020281EA0303362D5D
:1002F00088BF30BD11F0004F4FEA01314FF4801C30
:100300004CEA113102D0404261EB410113F0004F41
:100310004FEA03334CEA133302D0524263EB4303F8
:1003200094EA050F00F0A780A4F10104D5F1200E96
:100330000DDB02FA0EFC22FA05F2801841F10001F1
:1003400003FA0EF2801843FA05F359410EE0A5F1C5
:1003500020050EF1200E012A03FA0EFC28BF4CF0F6
:10036000020C43FA05F3C01851EBE37101F00045AC
:1003700007D54FF0000EDCF1000C7EEB00006EEBB9
:100380000101B1F5801F1BD3B1F5001F0CD3490843
:100390005FEA30004FEA3C0C04F101044FEA44529A
:1003A00012F5800F80F09A80BCF1004F08BF5FEA21
:1003B000500C50F1000041EB045141EA050130BD01
:1003C0005FEA4C0C404141EB010111F4801FA4F1A4
:1003D0000104E9D191F0000F04BF01460020B1FAF9
:1003E00081F308BF2033A3F10B03B3F120020CDA31
:1003F0000C3208DD02F1140CC2F10C0201FA0CF00F
:1004000021FA02F10CE002F11402D8BFC2F1200C73
:1004100001FA02F120FA0CFCDCBF41EA0C01904029
:10042000E41AA2BF01EB0451294330BD6FEA040472
:100430001F3C1CDA0C340EDC04F11404C4F120025D
:1004400020FA04F001FA02F340EA030021FA04F36F
:1004500045EA030130BDC4F10C04C4F1200220FAC6
:1004600002F001FA04F340EA0300294630BD21FA04
:1004700004F0294630BD94F0000F83F4801306BFCA
:1004800081F480110134013D4EE77FEA645C18BFBE
:100490007FEA655C29D094EA050F08BF90EA020F55
:1004A00005D054EA000C04BF1946104630BD91EA4D
:1004B000030F1EBF0021002030BD5FEA545C05D150
:1004C0004000494128BF41F0004130BD14F580048F
:1004D0003CBF01F5801130BD01F0004545F0FE4103
:1004E00041F470014FF0000030BD7FEA645C1ABF38
:1004F000194610467FEA655C1CBF0B46024650EA6F
:10050000013406BF52EA033591EA030F41F400219A
:1005100030BD00BF90F0000F04BF0021704730B520
:100520004FF4806404F132044FF000054FF00001F5
:1005300050E700BF90F0000F04BF0021704730B5B6
:100540004FF4806404F1320410F0004548BF40428B
:100550004FF000013EE700BF42004FEAE2014FEAE0
:1005600031014FEA02701FBF12F07F4393F07F4FBB
:1005700081F06051704732F07F4208BF704793F0BE
:100580007F4F04BF41F40021704730B54FF46074D1
:1005900001F0004521F000411CE700BF50EA0102D4
:1005A00008BF704730B54FF000050AE050EA01027D
:1005B00008BF704730B511F0004502D5404261EBED
:1005C00041014FF4806404F132045FEA915C3FF42E
:1005D000D8AE4FF003025FEADC0C18BF03325FEACB
:1005E000DC0C18BF033202EBDC02C2F1200300FA7C
:1005F00003FC20FA02F001FA03FE40EA0E0021FAA1
:1006000002F11444BDE600BF70B54FF0FF0C4CF48E
:10061000E06C1CEA11541DBF1CEA135594EA0C0F40
:1006200095EA0C0F00F0DEF82C4481EA030621EA7B
:100630004C5123EA4C5350EA013518BF52EA0335B6
:1006400041F4801143F4801338D0A0FB02CE4FF068
:100650000005E1FB02E506F00042E0FB03E54FF098
:100660000006E1FB03569CF0000F18BF4EF0010E90
:10067000A4F1FF04B6F5007F64F5407404D25FEA8C
:100680004E0E6D4146EB060642EAC62141EA55513F
:100690004FEAC52040EA5E504FEACE2EB4F1FD0C81
:1006A00088BFBCF5E06F1ED8BEF1004F08BF5FEAFF
:1006B000500E50F1000041EB045170BD06F00046B1
:1006C00046EA010140EA020081EA0301B4EB5C045E
:1006D000C2BFD4EB0C0541EA045170BD41F4801156
:1006E0004FF0000E013C00F3AB8014F1360FDEBF7B
:1006F000002001F0004170BDC4F10004203C35DA57
:100700000C341BDC04F11404C4F1200500FA05F3D9
:1007100020FA04F001FA05F240EA020001F000427A
:1007200021F0004110EBD37021FA04F642EB0601F0
:100730005EEA430E08BF20EAD37070BDC4F10C041A
:10074000C4F1200500FA04F320FA05F001FA04F2DE
:1007500040EA020001F0004110EBD37041F10001CA
:100760005EEA430E08BF20EAD37070BDC4F12005D5
:1007700000FA05F24EEA020E20FA04F301FA05F23D
:1007800043EA020321FA04F001F0004121FA04F2E5
:1007900020EA020000EBD3705EEA430E08BF20EAB5
:1007A000D37070BD94F0000F0FD101F000464000EF
:1007B00041EB010111F4801F08BF013CF7D041EA71
:1007C000060195F0000F18BF704703F00046520075
:1007D00043EB030313F4801F08BF013DF7D043EA46
:1007E0000603704794EA0C0F0CEA135518BF95EAFC
:1007F0000C0F0CD050EA410618BF52EA4306D1D183
:1008000081EA030101F000414FF0000070BD50EAA1
:10081000410606BF1046194652EA430619D094EA2B
:100820000C0F02D150EA013613D195EA0C0F05D115
:1008300052EA03361CBF104619460AD181EA030169
:1008400001F0004141F0FE4141F470014FF0000021
:1008500070BD41F0FE4141F4780170BD70B54FF0BC
:10086000FF0C4CF4E06C1CEA11541DBF1CEA13553C
:1008700094EA0C0F95EA0C0F00F0A7F8A4EB05041E
:1008800081EA030E52EA03354FEA013100F0888015
:100890004FEA03334FF0805545EA131343EA1263DE
:1008A0004FEA022245EA111545EA10654FEA002693
:1008B0000EF000419D4208BF964244F1FD0404F54C
:1008C000407402D25B084FEA3202B61A65EB0305A8
:1008D0005B084FEA32024FF480104FF4002CB6EB65
:1008E000020E75EB030E22BFB61A754640EA0C00E5
:1008F0005B084FEA3202B6EB020E75EB030E22BF25
:10090000B61A754640EA5C005B084FEA3202B6EB65
:10091000020E75EB030E22BFB61A754640EA9C0024
:100920005B084FEA3202B6EB020E75EB030E22BFF4
:10093000B61A754640EADC0055EA060E18D04FEAB2
:10094000051545EA16754FEA06164FEAC30343EA52
:1009500052734FEAC2025FEA1C1CC0D111F4801F1F
:100960000BD141EA00014FF000004FF0004CB6E718
:1009700011F4801F04BF01430020B4F1FD0C88BFB7
:10098000BCF5E06F3FF6AFAEB5EB030C04BFB6EBC2
:10099000020C5FEA500C50F1000041EB045170BDB5
:1009A0000EF0004E4EEA113114EB5C04C2BFD4EBE2
:1009B0000C0541EA045170BD41F480114FF0000E66
:1009C000013C90E645EA060E8DE60CEA135594EAE2
:1009D0000C0F08BF95EA0C0F3FF43BAF94EA0C0FE5
:1009E0000AD150EA01347FF434AF95EA0C0F7FF45A
:1009F00025AF104619462CE795EA0C0F06D152EAAE
:100A000003353FF4FDAE1046194622E750EA410691
:100A100018BF52EA43067FF4C5AE50EA41047FF4A2
:100A20000DAF52EA43057FF4EBAE12E74FEA410205
:100A300012F5001215D211D56FF47873B3EB625230
:100A400012D94FEAC12343F0004343EA505311F057
:100A5000004F23FA02F018BF404270474FF00000E9
:100A6000704750EA013005D111F0004008BF6FF027
:100A7000004070474FF00000704700BF4FEA41024E
:100A8000B2F1E04324BFB3F5001CDCF1FE5C0DD9EC
:100A900001F0004C4FEAC0024CEA5070B2F1004F36
:100AA00040EB830008BF20F00100704711F0804F39
:100AB00021D113F13872BCBF01F00040704741F4FE
:100AC00080114FEA5252C2F11802C2F1200C10FA02
:100AD0000CF320FA02F018BF40F001004FEAC123E6
:100AE0004FEAD32303FA0CFC40EA0C0023FA02F38A
:100AF0004FEA4303CCE77FEA625307D150EA013360
:100B00001EBF4FF0FE4040F44000704701F000402F
:100B100040F0FE4040F40000704700BF7BB972B95E
:100B20000029BEBF00204FF0004106E008BF0028AA
:100B30001CBF6FF000414FF0FF3000F0F3B9ADF192
:100B4000080C6DE904CE002909DB002B1ADB00F04C
:100B500083F8DDF804E0DDE9022304B07047404289
:100B600061EB4101002B1BDB00F076F8DDF804E0BF
:100B7000DDE9022304B0404261EB4101524263EBE4
:100B800043037047524263EB430300F065F8DDF81E
:100B900004E0DDE9022304B0404261EB410170470B
:100BA000524263EB430300F057F8DDF804E0DDE95F
:100BB000022304B0524263EB4303704753B94AB96E
:100BC000002908BF00281CBF4FF0FF314FF0FF3055
:100BD00000F0A8B9ADF1080C6DE904CE00F03CF8C6
:100BE000DDF804E0DDE9022304B0704707EE900A67
:100BF000F5EEC07AF1EE10FA01D400F009B808B5AC
:100C000080F0004000F004F8404261EB410108BD73
:100C1000D0B5FFF7A1FC00220D4B06460F46FFF7AB
:100C2000F3FC00F081F90446FFF774FC0022094B45
:100C3000FFF7EAFC02460B4630463946FFF72CFB2D
:100C400000F072F90022234610431946D0BD00BFC0
:100C50000000F03D0000F0412DE9F047089E0446F9
:100C60008846002B4BD18A42154667D9B2FA82F2E8
:100C70004AB1C2F1200701FA02F320FA07F79540C2
:100C800047EA030894404FEA154E230CB8FBFEF7E1
:100C90001FFA85FC0EFB178843EA084307FB0CF19B
:100CA000994209D9EB1807F1FF3080F01B81994276
:100CB00040F21881023F2B445B1AA4B2B3FBFEF052
:100CC0000EFB103344EA034400FB0CFCA44509D995
:100CD0002C1900F1FF3380F00781A44540F2048114
:100CE00002382C4440EA0740A4EB0C0400271EB154
:100CF000D4400023C6E900433946BDE8F0878B4263
:100D000009D9002E00F0EB800027C6E90001384623
:100D10003946BDE8F087B3FA83F7002F47D18B42FD
:100D200002D3824200F2FA80841A61EB03030120AD
:100D30009846002EE0D0C6E90048DDE702B9FFDEA4
:100D4000B2FA82F2002A40F08F80491B4FEA154E1A
:100D50001FFA85F80127B1FBFEFC230C0EFB1C11CA
:100D600043EA014308FB0CF1994207D9EB180CF157
:100D7000FF3002D2994200F2CD808446591AA3B2C4
:100D8000B1FBFEF00EFB101443EA044408FB00F82C
:100D9000A04507D92C1900F1FF3302D2A04500F27B
:100DA000B6801846A4EB080440EA0C409FE7C7F160
:100DB000200CBB4022FA0CFE4EEA030E01FA07F4A7
:100DC00020FA0CF521FA0CF34FEA1E482543B3FB39
:100DD000F8F92C0C08FB19331FFA8EFA44EA034386
:100DE00009FB0AF49C4202FA07F200FA07F10BD958
:100DF0001EEB030309F1FF3080F087809C4240F234
:100E00008480A9F1020973441B1BADB2B3FBF8F057
:100E100008FB103345EA034400FB0AFAA24508D94F
:100E20001EEB040400F1FF336BD2A24569D90238EE
:100E3000744440EA0940A0FB0289A4EB0A044C4533
:100E4000C2464B4654D351D0002E69D0B1EB0A05AF
:100E500064EB030404FA0CFCFD40FC404CEA05057D
:100E6000C6E90054002747E7C2F1200320FA03F740
:100E7000954001FA02F021FA03F34FEA154E384388
:100E8000010CB3FBFEF71FFA85F80EFB173341EA9E
:100E9000034107FB08F38B4204FA02F407D96918EF
:100EA00007F1FF3C2FD28B422DD9023F2944CB1AA8
:100EB00081B2B3FBFEF00EFB103341EA034100FBAD
:100EC00008F38B4207D9691800F1FF3C17D28B4217
:100ED00015D902382944C91A40EA07473BE7374683
:100EE000304609E70746E7E61846FBE64145ABD240
:100EF000B8EB020A69EB0E0201381346A4E760461C
:100F0000E9E7184695E76746D1E781467CE702386E
:100F10002C4447E7ACF1020C2B442FE7384608E796
:100F20003746E9E6704700BF4A0011D212F50012B9
:100F300011D20DD56FF47873B3EB62520ED44FEA31
:100F4000C12343F0004343EA505323FA02F07047B1
:100F50004FF00000704750EA013002D14FF0FF30EF
:100F600070474FF00000704703282DD870B5294D09
:100F70008AB055F820200592012303220228CDE9EA
:100F80000633089221D090424FF0000235D09842AB
:100F9000214B27D001921A6B42F040021A631B6B5F
:100FA00003F040030193019B1C4E044605A956F82B
:100FB000200000F051FE56F8240035F824100122DC
:100FC00000F0E0FF0AB070BD7047134B002203929F
:100FD0001A6B42F008021A631B6B03F008030393B9
:100FE000039BE1E702921A6B42F008021A631B6B43
:100FF00003F008030293029BD6E7074B04921A6B97
:1010000042F480621A631B6B03F480630493049BB5
:10101000CAE700BF0004002000380240100400208E
:10102000032800D97047044A044B32F8201053F8C3
:101030002000002200F0A6BF0004002010040020C1
:10104000032800D97047044A044B32F8201053F8A3
:101050002000012200F096BF0004002010040020B0
:1010600008B58AB20146024801F008F9002008BD1F
:10107000B0610020014B1880002070472004002040
:10108000F0B51A4CADF5017D0D460238694640AF0A
:1010900030F8023F1A0ADBB24FEA520C5E080CF03D
:1010A000550C02F0550206F0550603F0550314F8EE
:1010B0000CE014F802C0A25DE65C42EA0E1346EAB8
:1010C0000C124A7001F8023B8F42E1D12946684672
:1010D000074A08F0B9FAA91C064A0DF1010008F008
:1010E000B3FA00200DF5017DF0BD00BF24040020FF
:1010F000186100206461002000B591B001A801F0E2
:1011000019FF01214FF4C072022301A8CDE9011299
:10111000039301F0ABFC11B05DF804FB08B503F0DC
:1011200083FF08BD08B503F0B1FF08BD704700BFDD
:1011300008B5FFF7FBFF08BD2DE9F04F99B000247B
:10114000714D724E0294724B33602B6C746043F09D
:1011500004032B642B6C346103F004030293029BA1
:1011600003942B6BB46043F008032B6318AF2A6B16
:1011700013944FF4805347F81C3D02F008024FF0DF
:10118000020803234FF00109824603923946614861
:101190001493039AC6F80C90CDF84880CDF854808B
:1011A0004FF4005B00F058FD39465A48CDF844B082
:1011B00000F052FD304602F0B3FF2246304604A94B
:1011C000CDE90489CDE9064403F01CFA70223046CB
:1011D00008A90892CDE909440B9402F053FC50236E
:1011E000072230460CA9CDE90C23CDE90E4410941A
:1011F00002F0BEFE60224FF4007C4FF4807339464B
:10120000304611920422CDE9163CCDF84890CDE944
:101210001344159403F080F83046042103F0A0FB3A
:101220002146304603F004FC01942A6C3A4842F40B
:1012300000422A642A6C02F400420192019A04944A
:101240002A6B42F008022A632A6B02F00802049219
:10125000049A08942A6B42EA08022A632A6BCDF8A2
:10126000488002EA08020892394606220826089BAE
:1012700011961592CDE91348402600F0EDFC0522A9
:10128000394624481592119600F0E6FC0C942A6B1E
:10129000DAF80000214942F400122A632A6B02F4B2
:1012A00000120C9288420C9A0AD0002206210D20CE
:1012B00000F040F90D2000F083F919B0BDE8F08F7F
:1012C000174D184ACAF83C504FF48073EB614FF445
:1012D000003103234FF480674FF400662846C5E9C8
:1012E0000144EC60C5F818B06C62AB62C5E90B4410
:1012F000C5F838A0C5E9047629622A6000F004FB2D
:10130000284600F08BF9D0E700380240D460002076
:1013100000080040000C024000040240003C004075
:1013200080050020406002402DE9F04F434B444CC3
:10133000D969236021F4806185B0D96106462046D1
:10134000914600F071FF20460021FFF7D5FE4FF0D7
:10135000000A3C4BCDF80CA01A6B42F480521A6381
:101360001B6B03F480530393039BB9F1000F3CD034
:10137000354B364D364A374F6A60A3FB06381FFAA5
:1013800089F36B812B81C5F800A028460192009358
:10139000C8F38F1807F0DCFF4FF0020B4FF0180373
:1013A00039462846A7F80280BB80A7F800B008F0AD
:1013B00059F8B9F1010F18D9009B019AA5F85630D8
:1013C000A5F8543005F14C00C5F84CA02A6507F08B
:1013D000BFFF39464FF0180305F14C0021F806BF56
:1013E000A7F808807B8108F03DF8144B144823606F
:1013F00001F068F818B901461148FFF79DFE0F4B40
:101400002360DA690E4822F48062DA6100254FF425
:1014100040722023B600C4E901236661C4E9065581
:10142000C4E9035500F0CAFD2268D369284643F495
:101430008063D36105B0BDE8F08F00BF003C004081
:10144000B061002000380240D34D621018610020C6
:10145000489D807E40600020704700BF38B50E4A2E
:101460000E4B12781B6805464FF47A70B0FBF2F011
:10147000B3FBF0F000F0B8F808B90F2D01D9012046
:1014800038BD0446024629464FF0FF3000F052F8BE
:10149000034B20461D6038BDA4040020BC0400207E
:1014A000A804002008B50B4B1A6842F400721A60B9
:1014B0001A6842F480621A601A6842F480721A60F4
:1014C000032000F01BF80F20FFF7C8FFFFF7C4FF51
:1014D000002008BD003C0240034A044B11681B7801
:1014E0000B441360704700BFF8610020A404002083
:1014F000014B1868704700BFF8610020C31E042B21
:1015000010B5044603D99221084803F0ABFE084AFF
:10151000D3684FF6FF010B40240243F0BF6304F48D
:10152000E06443F400331C43D46010BD4CB10008A8
:1015300000ED00E00F2A70B5164605460C4634D87B
:101540000F2C2DD81B4BDB68C3F30223C3F107011B
:10155000042903F1040228BF0421062A17D9033BFA
:101560004FF0FF329A4026EA02064FF0FF328A40DF
:1015700024EA02029A4032431201002DD2B209DB62
:1015800005F1604505F5614585F8002370BD00262D
:101590003346EAE7084B05F00F052B441A7670BD79
:1015A000AB21064803F05EFECCE7AA21034803F016
:1015B00059FEC5E700ED00E0FCEC00E04CB100088E
:1015C000002808DB00F01F0101234009044A8B407A
:1015D00042F820307047BE21024803F043BE00BFEE
:1015E00000E100E04CB100080138B0F1807F0ED27C
:1015F000084B10B4084C5860F02084F823000022F7
:10160000072110469A6019605DF8044B704701206D
:10161000704700BF10E000E000ED00E0F8B50446C0
:10162000FFF766FF002C00F0E4802368B14A934284
:10163000054631D0183293422ED0183293422BD027
:101640001832934228D01832934225D01832934250
:1016500022D0183293421FD0183293421CD002F588
:101660005672934218D01832934215D018329342D2
:1016700012D0183293420FD0183293420CD0183245
:10168000934209D01832934206D01832934203D0C5
:10169000B821994803F0E6FD636833F0C06306D0D3
:1016A000B3F1006F03D0B921934803F0DBFDA368C9
:1016B00033F0400202D0802B40F0CB80E36833F45B
:1016C000007340F0A280236933F4806340F093807C
:1016D000636933F4006203D0B3F5805F40F0C380E8
:1016E000A36933F4005203D0B3F5804F40F0A780D4
:1016F000E36933F0200206D0B3F5807F03D0BF2129
:101700007D4803F0AFFD236A33F4403303D0C0219A
:10171000794803F0A7FD636A002B4DD102222368AC
:1017200084F835201A68002122F0010284F8341070
:101730001A6005E0FFF7DCFE401B052852D823683D
:101740001A68D107F6D4D4E90126D4E9035132430B
:1017500060691F682A43D4E906650A430243216A87
:10176000664832432A430A43616A3840042942EA00
:10177000000200F082801A605A6922F007021143C9
:10178000DAB25F485961103AA0FB021212095D49B2
:1017900023F47F73895CE16523F00303032A88BF88
:1017A00004333F228A4001250021A36508469A6040
:1017B000616584F83550F8BD042B30D1A36A032B42
:1017C00038D8E36A33F0C07303D0C7214A4803F026
:1017D00049FD236B33F4C003A0D0C821464803F071
:1017E00041FD9BE7032320226265184684F83530CB
:1017F000F8BD0120F8BDBC213F4803F033FD63690B
:1018000033F400623FF46CAF66E7BB213A4803F063
:1018100029FD236933F480633FF45AAFEBE7C1211C
:10182000354803F01FFD636A002B3FF477AFA36ACE
:10183000032BC6D9C621304803F014FDC1E7BE21F1
:101840002D4803F00FFDE36933F020023FF45BAF56
:1018500052E7BA21284803F005FDE36833F400732A
:101860003FF431AFD1E7BD21234803F0FBFCA3696E
:1018700033F400523FF43CAF36E7D4E90B010143A7
:101880000A43A56A1A605A6945F0040122F007026A
:10189000114300283FF474AF8EB1B6F5005F1AD043
:1018A000022D05D9032D7FF46BAFC2017FF568AF20
:1018B000012340226265184684F83530F8BD012DB9
:1018C00004D0F2D3022D7FF45BAFEEE7B0F1C07F1E
:1018D0007FF456AFECE7032D3FF652AF01A252F86A
:1018E00025F000BFB1180008AB180008B1180008B7
:1018F000CD1800081060024088B100083F8010F049
:10190000ABAAAAAAC0B1000800286CD038B590F8DC
:101910003530DBB2022B68D00368354A9342044667
:1019200033D01832934230D0183293422DD018322F
:1019300093422AD01832934227D01832934224D0AF
:101940001832934221D0183293421ED002F55672BB
:1019500093421AD01832934217D01832934214D0BF
:101960001832934211D0183293420ED0183293425B
:101970000BD01832934208D01832934205D04FF45E
:10198000A4711C4803F06EFC236819681A4D1B48AB
:10199000DAB2103AA5FB025221F0010119601209D6
:1019A0000021196059609960D960196123F47F7131
:1019B000805C21F00301032A88BF043121253F22E6
:1019C0005D6182400023E065A165C4E90F33C4E98D
:1019D0001133C4E9133318468A60636584F83430E0
:1019E00084F8353038BD01207047184638BD00BF37
:1019F0001060024088B10008ABAAAAAAC0B10008D2
:101A00002DE9F04104461D46581E4FF6FE739842DC
:101A10000F469046A66D3AD894F83430012B3FD04B
:101A200094F835300122934284F8342029D121687A
:101A3000E06D0222002384F8352063650B68A268FC
:101A400023F480230B603F23402A03FA00F34D6008
:101A5000226C0BBFC1F808808F60CF60C1F80C808A
:101A6000B3600B6843F016030B601AB10B6843F0C8
:101A700008030B600B6843F001030B600020BDE816
:101A8000F081002384F834300220BDE8F0814FF467
:101A9000E671054803F0E6FB94F83430012BBFD122
:101AA0000220BDE8F08100BF88B10008F0B583B026
:101AB0000023876D0193C36D3D68654908229A40F4
:101AC0002A4204460E6803D001680868400759D4CA
:101AD00001229A402A4203D021684969080674D439
:101AE00004229A402A4203D021680968890766D4F3
:101AF00010229A402A4203D02168086800074BD47C
:101B000020229A402A4214D021680868C00610D5C5
:101B1000BA6094F83520052A63D00B6813F4802F3F
:101B20000B687ED0190340F18980E36B0BB120462E
:101B30009847636D23B3636DDA071AD505232268CE
:101B400084F835301368434923F00103A1FB0616DE
:101B50001360B60A02E01368DB0704D5019B01336A
:101B6000B3420193F7D90022012384F8342084F88A
:101B70003530E36C23B1204603B0BDE8F040184790
:101B800003B0F0BD086820F004000860BA60626D20
:101B900042F0010262659BE7BA600A6812F4802F86
:101BA0000A6818D1D20503D40A6822F008020A6034
:101BB000226C002AA4D020469047E36DA0E7BA60CB
:101BC000626D42F00402626592E7BA60626D42F0B3
:101BD0000202626584E71103EAD5A26C002AEAD109
:101BE0008EE70A68206C22F016020A604A6922F029
:101BF00080024A6138B30A6822F008020A603F2274
:101C0000216D02FA03F300200122BB6084F8340046
:101C100084F835200029B3D0204603B0BDE8F04059
:101C2000084713F4807380D10A68012022F0100263
:101C30000A6084F8343084F8350076E7636C002B52
:101C40007FF475AF75E7A26C002AD4D1D7E700BF47
:101C5000BC040020B5814E1B2DE9F04FBA4B9842D1
:101C600083B081468B462BD003F58063984227D002
:101C700003F58063984223D003F5806398421FD018
:101C800003F5806398421BD003F58063984217D018
:101C900003F58063984213D003F5806398420FD018
:101CA00003F5806398420BD003F58063984207D018
:101CB00003F58063984203D0B321A44803F0D2FA1D
:101CC000DBF800309AB2002A00F0CB801B0C1B041A
:101CD000002B40F0C680DBF80430032B17D9A3F1AA
:101CE0001102012A13D99A4923F400128A420ED014
:101CF00001F580118B420AD0A1F570218A4206D0ED
:101D0000944A934203D0B521904803F0ABFADBF834
:101D10000830022B00F2F480DFF864A24FF00008D4
:101D200005E008F10108B8F1100F00F097800124D8
:101D3000DBF8005004FA08F42540AC42F1D1DBF89E
:101D4000042022F010014FEA480703264B1EBE4034
:101D5000012B6FEA060640F28980D9F80C00DBF807
:101D600008303040BB4003430229C9F80C3000F072
:101D70009480D9F8001002F00303BB400E403343B7
:101D8000D700C9F80030CCD5734B6F4C00210191BE
:101D9000596C41F480415964596C28F0030303F1F4
:101DA000804301F4804103F59C33019108F0030165
:101DB00001989E6889000F208840A14526EA00000E
:101DC00026D0D14500F09280644CA14500F093806C
:101DD000634CA14500F09980624CA14500F09A80C7
:101DE000614CA14500F0A080604CA14500F0A180AD
:101DF0005F4CA14500F093805E4CA14500F09E80B1
:101E00005D4CA1450CBF09240A2404FA01F10843E2
:101E10005A4998600B685948E943D6034CBF2B4395
:101E20000B4003604368554894034CBF2B430B4061
:101E300043608368D00251484CBF2B430B40836002
:101E4000C368920254BF01EA03051D4308F101086B
:101E50004A4BB8F1100FDD607FF469AF03B0BDE805
:101E6000F08FB421394803F0FDF934E7DBF80C308A
:101E7000032B30D8D9F80800BB4030400343C9F8E1
:101E80000830D9F80400C2F3001320EA040003FA72
:101E900008F40443C9F804405FE7DBF810300F2B67
:101EA00007D9E021294803F0DDF9DBF81030DBF831
:101EB00004204FEAD80009EB800008F00701046A0B
:101EC00089004FF00F0C0CFA01FC8B4024EA0C0443
:101ED000234303624DE7C8211C4803F0C3F9DBF834
:101EE0000420DBF80C3022F01001C3E7012404FACF
:101EF00001F108438CE7022404FA01F1084387E763
:101F0000B621124803F0AEF906E7032404FA01F102
:101F100008437DE7042404FA01F1084378E7072425
:101F200004FA01F1084373E7052404FA01F10843B8
:101F30006EE7062404FA01F1084369E7082404FA6D
:101F400001F1084364E700BF00000240C8B1000887
:101F5000000011100000221000380240000802406A
:101F6000000C024000100240001402400018024021
:101F7000001C02400020024000240240003C0140BE
:101F80000004024070B5064615460C4661B1012DAD
:101F900003D805B92404B46170BD4FF4D07105486D
:101FA00003F060F9B46170BD40F29F11014803F085
:101FB00059F9ECE7C8B10008704700BF002800F0ED
:101FC000EA80F8B5904A03689342044608D002F5C7
:101FD0008062934204D040F21B118C4803F042F916
:101FE000636833F4407304D04FF48E71874803F074
:101FF00039F9A36833F0300206D0B02B04D040F298
:102000001D11824803F02EF9E268052A00F2C5800E
:102010002B23D340DB0740F1C080236933F40073E6
:1020200040F0C58063697A4AA3F5FA51914202D91A
:10203000022B40F0C980A36933F0080304D040F2BA
:102040002111724803F00EF9E369012B3FD894F88F
:10205000413003F0FF02002B00F09580022321683D
:1020600084F84130C8696569E66820F47B6020F037
:102070000F009D42C8610B6235D0A368002E0CBFD3
:10208000102520250120202B98BF6D0000F0A0FF17
:102090002269B2F5007F00F0A280B0FBF5F000EB02
:1020A000800043006069B3FBF0F305335949A1FB9D
:1020B0000313DB085D08A91EFD2903F0010340F2AC
:1020C0009B80636C43F0100363640120F8BD4FF400
:1020D00091714E4803F0C6F894F8413003F0FF02C6
:1020E000002BBBD14FE02269A769D4E901302A4314
:1020F0000A62CA69034343F4006322F47B623B43F0
:1021000022F00F02334320F0800013433028CB61CC
:1021100003D1CB6943F48053CB61236A012B05D9EA
:1021200040F2BD11394803F09DF8236A012B24D1F8
:1021300020683549384A884218BF4FF04022D4E918
:102140000235D1693548606321F47B6121F00F01CC
:102150000220D1612B431062A5696168D06943F404
:1021600000632B4331F4007143EA00039BB214BFB8
:1021700000214FF480710B43D36100200123606480
:1021800084F84130F8BD264B84F840206363204634
:10219000FFF712FF62E7012070474FF48F711B4871
:1021A00003F060F8236933F400733FF43BAF40F26F
:1021B0001F11164803F056F86369154AA3F5FA5142
:1021C00091427FF638AF33E74FF490710F4803F038
:1021D00049F8A36933F008033FF436AF2FE7E3680B
:1021E000616973B1AD00B0FBF5F000EB8000430016
:1021F000B3FBF1F3053359E745EA03252168E668A7
:1022000072E7ED00EFE700BF0038004004B20008BD
:10221000C0CE0200CDCCCCCC00340040D12400088C
:1022200095230008704700BF08B30368114A934222
:1022300010B5044609D002F58062934205D04FF4F0
:10224000FB710D4803F00EF82368022284F8412048
:10225000DA6922F48062DA612046FFF7E3FF0023A7
:102260006364184684F8413084F8403010BD012082
:10227000704700BF0038004004B2000800294BD06E
:10228000002A49D090F84030012B5DD0012380F81E
:10229000403090F84130012B40D170B50023042428
:1022A000066880F841404364F369C16203F00703A4
:1022B000032B82B037D0052B35D002864286F369D6
:1022C000C46B254A254D226403F44073244AE56318
:1022D000B3F5407FE26406D100230193F3680193D4
:1022E000B3680193019B038E0A46054606F10C0173
:1022F0002046FFF785FBD8B92B68DA69510503D46E
:10230000DA6942F48062DA615A68D2071ED5002386
:1023100085F8403002B070BD01207047002380F87E
:10232000403002207047520092B202864286C6E7D1
:102330006B6C012243F0080300216B64104685F8A2
:10234000412085F84010E5E7022070475A6842F0C6
:1023500001025A60DBE700BF69230008752300080B
:102360009D240008704700BF08B5806BFEF7DAFEB9
:1023700008BD00BFC369806B10B543B901684A68E6
:10238000012422F001024A60438680F84140FEF7B2
:10239000C5FE10BD10B5036884B09A68019290F82C
:1023A0004120042A044634D094F84130032B01D054
:1023B00004B010BD019B9B0710D523685A68100616
:1023C0000CD5616A31F8022BDA60628D6162013AE4
:1023D00092B26285628D92B2002A49D0019B1907A0
:1023E000E6D523685A689206E2D55A68002122F0A1
:1023F000A0025A6003919B6803930123039A84F817
:102400004130636C43F0040363642046FEF790FEA2
:10241000CEE7019AD1070ED55A6852060BD5C16A8C
:10242000DA6821F8022B428EC162013A92B24286EA
:10243000428E92B23AB3019B5906B5D523685A68C9
:102440009206B1D55A68002122F060025A600291CA
:10245000DA6802929B6802930123029A84F8413061
:10246000636C43F0020363642046FEF761FE9BE762
:102470005A68012122F0A0025A60204684F84110D7
:10248000FFF770FFAAE75A68012122F060025A6044
:1024900080F84110FEF742FECDE700BF806B016877
:1024A0004B6810B5002223F0030301244B604285E2
:1024B000428680F84140436C43F008034364FEF7D2
:1024C00037FE10BD90F84100704700BF704700BF55
:1024D00030B5934A0568934BA96887B0954218BFF9
:1024E0004FF0402300919968019169684268029118
:1024F0005968039132F40072044675D0019A91072D
:102500001AD5039A120617D5426A911C12884162A5
:10251000DA60428D013A92B24285428D92B25AB946
:102520005A6822F0A0025A60438E9BB223B901235D
:1025300080F84130FFF7CAFF009BDB071CD5029BE8
:102540005D0619D5E36A2268981CD168E06219809B
:10255000638E013B9BB26386638E9BB263B9536803
:1025600023F060035360638D9BB22BB9012384F881
:1025700041302046FFF7AAFF009B58061BD5029B5F
:10258000990618D5226866485168664B21F06001AB
:10259000824218BF4FF0402351605A68012122F057
:1025A000A0025A6084F84110636C43F00203636434
:1025B0002046FEF7BDFD019B1A076ED5039B9B06C7
:1025C0006BD522685649574B8A4218BF4FF04023BB
:1025D0000120596821F0A0015960536823F060037D
:1025E000536084F841004EE0009B9A0702D5029B9D
:1025F0001B0677D4019BD80702D5039B59064ED4FE
:10260000019B5A0622D5039B9B061FD5236844498C
:10261000444A8B4218BF4FF040220020516821F0FD
:10262000600151605A6822F0A0025A600490DA6892
:1026300004929B6804930123049A84F84130636CEC
:1026400043F0020363642046FEF772FD009B1D0702
:1026500023D5029B980620D5236831485968314A12
:1026600021F0A001834218BF4FF040225960516809
:10267000002021F06001516005909B6805930123C3
:10268000059A84F84130636C204643F00403636488
:1026900007B0BDE83040FEF74BBD07B030BD206845
:1026A0001F49204AE36A884218BF4FF04022981C15
:1026B000D168E0621980638E013B9BB26386638EB2
:1026C0009BB2002B9CD1536823F060035360638D51
:1026D0009BB2002B94D1012384F841302046FFF7B0
:1026E000F5FE8DE7436A9A1C1B884262EB60438DBE
:1026F000013B9BB24385438D9BB2002B7FF47AAFA5
:102700006B6823F0A0036B60438E9BB2002B7FF4B9
:1027100071AF012380F84130FFF7D8FE6AE700BFB0
:10272000003800400034004030B583B0194B1A49DE
:102730001A4C002201921A6C42F080521A641B6CEF
:1027400003F0805301930123019A0B60FEF7D0FE42
:10275000054605E0FEF7CCFE401BB0F57A7F16D8A3
:102760006368DA03F6D50E4B0C4C01221A60FEF7B3
:10277000BFFE054605E0FEF7BBFE401BB0F57A7FC5
:1027800005D863689B03F6D5002003B030BD032055
:1027900003B030BD0038024040000E4200700040DF
:1027A00044000E42174908B58B6803F00C03042B54
:1027B0001BD0082B17D14A684B6813F4800302F032
:1027C0003F0214D149681048C1F38811A1FB0001F0
:1027D000FEF7F4F90B4B5B68C3F3014301335B0075
:1027E000B0FBF3F008BD084808BD084808BD4B68B9
:1027F0000648C3F38813A3FB00010023FEF7DEF9AC
:10280000E8E700BF003802400024F40000127A001C
:10281000002800F0EE800368013B0E2B2DE9F0410B
:1028200004460D4600F2B5800F2D00F2A580794ACE
:10283000136803F00F03AB42C0F0DD8023689807F4
:1028400018D5590704D574498A6842F4E0528A6061
:102850001A0704D570498A6842F460428A60A16808
:1028600031F0800240F09E806B48826822F0F002D6
:102870000A438260DF0728D56368032B00F2B28029
:10288000012B00F0A9809A1E012A634A126840F2C7
:10289000BD8091077AD5604EB26822F003021343DF
:1028A000B360FEF725FE41F28837804606E0FEF76A
:1028B0001FFEA0EB0800B84200F2A680B368626871
:1028C00003F00C03B3EB820FF1D1524A136803F00B
:1028D0000F03AB4206D9EBB21370136803F00F037A
:1028E000AB4253D123685A0718D5E16831F48052BE
:1028F0000ED021F40062B2F5A05F09D0B1F5C05F3F
:1029000006D040F2BA21454802F0ACFCE1682368E9
:102910004148826822F4E0520A4382601B0718D5BE
:10292000226932F480530DD022F40063B3F5A05F26
:1029300008D0B2F5C05F05D040F2C121374802F09F
:1029400091FC226934498B6823F4604343EAC20353
:102950008B60FFF727FF304B314C9B683149324A7F
:10296000C3F30313E35C20FA03F308681360FEF774
:1029700075FD0020BDE8F08140F25221274802F0A9
:1029800071FC244BEDB21A681D701B680120BDE874
:10299000F08140F25121214802F064FC0F2D7FF6B6
:1029A00046AFE9E721F02002902A3FF45DAF21F025
:1029B0004002A02A3FF458AF21F01002C02A3FF491
:1029C00053AFF0293FF450AF40F27521134802F0A5
:1029D00049FCA168236847E70F4A126896033FF550
:1029E0005AAFD3E74FF41F710C4802F03BFC636809
:1029F00046E701207047EBB21370136803F00F0332
:102A0000AB423FF41BAFC1E70320C0E790013FF5A5
:102A100042AFBBE7003C0240003802403CB2000835
:102A200098BA0008A8040020BC040020044B054A02
:102A30009B680549C3F382230868D35CD84070477C
:102A400000380240A8BA0008BC040020044B054A24
:102A50009B680549C3F342330868D35CD84070478C
:102A600000380240A8BA0008BC040020F0B50446B3
:102A70000068431EB3F5FF7F83B000F2CA810206EF
:102A80000CD5626B32F0006340F0D281AA49D1F8D4
:102A90008C3023F000631343C1F88C30C3050CD590
:102AA000A26B32F0805340F0BB81A349D1F88C3047
:102AB00023F080531343C1F88C3010F0430F6ED0D5
:102AC0006368323BB3F5BF7F00F2BA819B4B9A4DEE
:102AD00000221A60FEF70CFD064605E0FEF708FD31
:102AE000801B022800F281812B681F01F6D4236825
:102AF000DD070BD5A268911E052900F2AE81606842
:102B00008D49120742EA8012C1F8842098071ED529
:102B1000E368023B0D2B00F2B081236A5A1E1F2A84
:102B200000F2A3818449E368D1F8840065681B063C
:102B300000F0E04043EA85130343C1F88430D1F844
:102B40008C3023F01F031343C1F88C3023685906DF
:102B500013D5E368023B0D2B00F29C81A268931E03
:102B6000052B00F29081E368606873491B0643EA15
:102B7000801343EA0273C1F88430704B6E4D01221A
:102B80001A60FEF7B5FC064605E0FEF7B1FC801BB7
:102B9000022800F22A812B681A01F6D5206810F06D
:102BA0000C0F00F025812369323BB3F5BF7F00F2A3
:102BB0002A81634B604D00221A60FEF799FC06469D
:102BC00005E0FEF795FC801B022800F20E812B68C1
:102BD0009F00F6D42368580724D5A369023B0D2B28
:102BE00000F28F81636A591E1F2900F28281524AC6
:102BF0002569D2F88830D2F8880003F4403300F019
:102C0000E0400343A06943EA851343EA0063C2F846
:102C10008830D2F88C3023F4F85343EA0123C2F809
:102C20008C302368190723D5E369023B052B00F29A
:102C30005A81A56A35F4403340F008813E4A206944
:102C4000D2F88830D2F8881003F4403301F0706174
:102C50000B43E16943EA801343EA0173C2F8883009
:102C6000D2F88C3023F440332B43C2F88C302368E5
:102C70001A0604D5636BB3F1006F00F01181304B7D
:102C80002D4D01221A60FEF733FC064605E0FEF7E3
:102C90002FFC801B022800F2A8802B689F00F6D52D
:102CA0002068850640F18980E36AB3F5807F2ED0E5
:102CB000B3F5007F2BD0234A23F4A021914223F4C3
:102CC000803024D002F5003223F4102191421ED02E
:102CD0001D4923F440328A4219D001F5C02123F462
:102CE00088138B4213D0194B9A4210D003F58023DE
:102CF0009A420CD003F580239A4208D003F5802332
:102D0000984204D04FF48861114802F0ABFA0A4BA4
:102D1000104D002201921A6C42F080521A641B6C12
:102D200003F080530193019B2B6843F480732B6065
:102D3000FEF7DEFB064614E000380240680047421A
:102D40007000474200030200000308000003100067
:102D500074B2000800700040FEF7CAFB801B022816
:102D600043D82B68D905F7D56E49E36A0A6F12F488
:102D7000407203F4407010D082420ED00B6F6A4A4A
:102D800023F4407301250020156010600B670B6F62
:102D9000DA071CD4E36A03F44070B0F5407F00F01A
:102DA000B68060498A6822F4F8128A605D4A116F21
:102DB000C3F30B030B431367206810F0100015D00A
:102DC0005A4B94F830201A60002003B0F0BD0D4635
:102DD000FEF78EFB41F2883607462B6F9B07D9D44E
:102DE000FEF786FBC01BB042F7D9032003B0F0BD4D
:102DF00003067FF556AF636BB3F1006F3FF4D3AEBC
:102E00008506DAD550E74FF47971494802F02AFA7D
:102E1000CFE6474840F26D3102F024FA20682EE6F2
:102E2000434840F27E3102F01DFAA26B20683CE676
:102E30003F4840F2733102F015FA626B206825E6D4
:102E400040F28E313A4802F00DFA3FE640F20C4172
:102E5000374802F007FAA56AF0E64FF46971344882
:102E600002F000FAA268236849E640F2B231304825
:102E700002F0F8F9236A5A1E54E640F2B1312C48A8
:102E800002F0F0F949E64FF47171294802F0EAF9CD
:102E9000A26868E640F2C331254802F0E3F95DE636
:102EA0006269082A19D940F21F41214802F0DAF973
:102EB00062691C482169D0F88830D0F8885003F046
:102EC000706305F0E04552082B43013A43EA811351
:102ED00043EA0243C0F88830D1E64FF4AA73D340E6
:102EE000DB07E6D4DFE740F20B41114802F0BAF904
:102EF0009FE640F2FA310E4802F0B4F9636A591EB7
:102F000075E640F2F9310A4802F0ACF96AE6054884
:102F1000826823F0704122F4F81221F440710A43D0
:102F2000826043E700380240400E4742E0114742CA
:102F300074B20008254B40F2BF120260D3F884201F
:102F4000C2F388124260D3F88420C2F30272826016
:102F5000D3F88420C2F30362C260D3F88820C2F39E
:102F600088120261D3F88820C2F30272C261D3F8DA
:102F70008820C2F303628261D3F88C2002F01F0222
:102F80000262D3F88C20C2F304224262D3F88C2070
:102F900002F44032826299681A6F01F4F81102F467
:102FA00040720A43C262D3F88C2002F0006242638E
:102FB000D3F88C2002F080528263D3F88C3013F067
:102FC000807318BF012380F830307047003802400A
:102FD000012809D1124A936813F4000306D0012B8B
:102FE000104818BF0020704700207047536813F442
:102FF000800F536814BF0C480C4803F03F03B0FB2C
:10300000F3F0074BD3F88420D3F88430C2F388124E
:1030100000FB02F0C3F30273B0FBF3F0704700BF94
:10302000003802400080BB0000127A000024F40047
:103030002DE9F04103680F2B82B0044600F24B816A
:10304000DD073BD5636833F4803207D0B3F5A02F9A
:1030500004D040F61151B74802F004F9B64A93681B
:1030600003F00C03042B00F02C81936803F00C0395
:10307000082B00F022816368B3F5803F00F089815E
:10308000B3F5A02F00F0ED81AB4D2A6822F4803219
:103090002A602A6822F480222A60002B40F07E8178
:1030A000FEF726FA064605E0FEF722FA801B6428A2
:1030B00000F292812B689B03F6D423689F0734D5D6
:1030C000E368012B04D940F649519A4802F0CAF846
:1030D00023691F2B00F28481974B9A6812F00C0F22
:1030E00000F004819A6802F00C02082A00F0FA80CD
:1030F000E368002B00F09381904B8F4D01221A6002
:10310000FEF7F6F9064605E0FEF7F2F9801B022805
:1031100000F262812B689807F6D52B68226923F0AC
:10312000F80343EAC2032B6023681A0718D56369C2
:10313000012B00F2F680002B00F0E380804B7E4DE7
:1031400001221A60FEF7D4F9064605E0FEF7D0F931
:10315000801B022800F240816B6F9B07F6D5236825
:103160005D073BD5A368012B06D9052B04D040F69B
:10317000BC51704802F076F86F4A136C13F080531C
:1031800000F0E48000266F4D2A68D00540F11481DC
:10319000A368012B00F02A81052B00F09081664D79
:1031A0002A6F22F001022A672A6F22F004022A679E
:1031B000002B40F02081FEF79BF941F288378046D2
:1031C00006E0FEF795F9A0EB0800B84200F2048192
:1031D0002B6F9B07F5D4002E40F04D81A369022B85
:1031E00000F2CD80002B64D0534A916801F00C01AD
:1031F000082900F08280022B40F02281E36933F439
:10320000800304D040F608614A4802F02BF8236A94
:103210003F2B00F24E81636A323BB3F5BF7F00F271
:103220004281A26A082A00F22C814FF4AA73D3408B
:10323000D80740F12681E36A023B0D2B00F227817B
:10324000236B023B052B00F228813F4B3A4D0022B5
:103250001A60FEF74DF9064605E0FEF749F9801BB6
:10326000022800F2B9802B689901F6D4D4E907321C
:10327000666AE06A216B1343A26A2F4C43EA861305
:1032800043EA0063520843EA0173013A2E4943EAD4
:10329000024301226B600A60FEF72AF9054605E049
:1032A000FEF726F9401B022800F2968023689A0157
:1032B000F6D5002002B0BDE8F081536858027FF5D2
:1032C000DAAE1D4B1B6899037FF5F7AE6368002BE0
:1032D0007FF4F3AE11E040F60C51164801F0C2FF46
:1032E0002368ADE65B685E023FF502AF124B1B68D8
:1032F0009D0737D5E368012B34D0012002B0BDE82B
:10330000F0810F4A0C4D1360FEF7F2F8064604E018
:10331000FEF7EEF8801B02285ED86B6F9F07F7D48C
:103320001DE74FF45961034801F09CFF6369002BCE
:10333000E7D003E774B200080038024000004742BB
:10334000800E474200700040600047420193136CBA
:1033500043F080531364136C03F080530193019B7B
:10336000012610E75B4A2169136823F0F80343EA5A
:10337000C103136023681A077FF5F2AED7E640F663
:10338000FF51554801F06EFFA369002B7FF42CAF6D
:103390008FE7504A136843F480331360FEF7A8F8B0
:1033A0004C4D064604E0FEF7A3F8801B642813D8B2
:1033B0002B689A03F7D580E62A6842F480722A6067
:1033C000FEF796F807462B68D9053FF5E1AEFEF704
:1033D0008FF8C01B0228F6D9032002B0BDE8F081A7
:1033E00040F64A513C4801F03DFF75E6394A136FFB
:1033F00043F001031367FEF77BF8364D804641F238
:10340000883705E0FEF774F8A0EB0800B842E3D86F
:103410002B6F9A07F6D5002E3FF4E0AE2BE02F4A33
:103420002C4D1360FEF764F8064604E0FEF760F8E2
:10343000801B0228D0D82B689907F7D4236874E63C
:10344000274B002119601446FEF752F8054604E0A8
:10345000FEF74EF8401B0228BED823689B01F7D424
:1034600027E71C4B1A6842F480221A601A6842F45B
:1034700080321A6092E7174A136C23F0805313646A
:10348000ACE640F60B61144801F0ECFED3E640F6E2
:103490000C61114801F0E6FED2E640F60D610E48DF
:1034A00001F0E0FED1E640F60A610B4801F0DAFED9
:1034B000B7E640F60961084801F0D4FEABE6054BDB
:1034C0001A6F42F004021A671A6F42F001021A677B
:1034D00091E700BF0038024074B200080000474284
:1034E000600047422DE9F843036A364A044623F058
:1034F000010388680F4609682362256AD4F80480AE
:10350000A66925F0020526F07306944245EA0005F7
:1035100046EA010634D02C4B9C4207D07B68C4F8A5
:103520000480A66163632562BDE8F883FB6825F02B
:1035300008094BB3082B39D041F20271234801F03E
:1035400091FEFD681F4B49EA05059C4225F00405E4
:103550001CD01D4B9C42E1D1BB6933F4007319D0E0
:1035600041F20F71194801F07DFE7B6933F48072DE
:1035700014D041F21071154801F074FE7B690DE022
:10358000FB6825F00809B3B925F00C05BB6933F4D5
:103590000073E5D17B6933F48072EAD1BA6928F40B
:1035A000407848EA020848EA0308B7E725F00C0526
:1035B00045F00805CDE7082BBED125F00C0545F0F8
:1035C0000805E3E70000014000040140B0B2000834
:1035D0002DE9F843036A364A044623F48073886869
:1035E0000F4609682362256AD4F80480E66925F449
:1035F000007526F07306944245EA002546EA010666
:1036000034D02C4B9C4207D07B68C4F80480E66120
:10361000E3632562BDE8F883FB6825F400694BB3DA
:10362000082B39D041F29871234801F01BFEFD6848
:103630001F4B49EA05259C4225F480651CD01D4B93
:103640009C42E1D1BB6933F4007319D041F2A571FA
:10365000194801F007FE7B6933F4807214D041F2FF
:10366000A671154801F0FEFD7B690DE0FB6825F4AD
:103670000069B3B925F44065BB6933F40073E5D143
:103680007B6933F48072EAD1BA6928F4405848EA79
:10369000021848EA0318B7E725F4406545F40065C9
:1036A000CDE7082BBED125F4406545F40065E3E77E
:1036B0000000014000040140B0B20008036A1C4A47
:1036C000F0B5044623F4805388680F4609682362E6
:1036D000256A6368E66925F4005526F4E6469442B7
:1036E00083B045EA003546EA01260AD002F5806239
:1036F000944206D07A686360E6612264256203B072
:10370000F0BD7A6932F4807104D123F4804343EA36
:103710008213EFE741F2E4710648019301F0A2FD44
:10372000019B7A6923F4804343EA8213E2E700BFF6
:1037300000000140B0B200080268936870B50C4602
:10374000496823F0700305460B43206823F0070304
:1037500003433029936000F0AC8040F2A3805029ED
:1037600000F0168151D9602900F0C880702940F01E
:103770009E80BD4B9A421FD0B2F1804F1CD0A3F562
:103780007C439A4218D003F580639A4214D003F523
:1037900080639A4210D003F578439A420CD003F527
:1037A00070539A4208D0A3F594339A4204D041F65C
:1037B0001D01AE4801F056FDE36833F4405304D0D8
:1037C00041F61E01A94801F04DFDA368B3F5004F75
:1037D00005D033F0020202D00A2B40F03981216972
:1037E0000F2905D94FF4C151A04801F03BFD2169D3
:1037F0002868E3688268A46822F47F422343134365
:1038000043EA01238360002070BD40294FD1964BCD
:103810009A422FD0B2F1804F2CD0A3F57C439A422C
:1038200028D003F580639A4224D003F580639A423E
:1038300020D003F578439A421CD003F570539A4286
:1038400018D003F580639A4214D003F580639A423E
:1038500010D0A3F598339A420CD003F580639A42B6
:1038600008D003F580639A4204D041F62C017F48CA
:1038700001F0F8FC23690F2B00F2E4802368052B8C
:1038800000F0DE802B6820691C6A196A21F00101B2
:1038900019629A6922F0F00242EA00129A6100204D
:1038A0001C6270BD102904D0202902D009B100206B
:1038B00070BD6D4B9A42FAD0B2F1804FF7D0A3F5AC
:1038C0007C439A42F3D003F580639A42EFD003F52C
:1038D00080639A42EBD003F578439A42E7D003F530
:1038E00070539A42E3D0A3F594339A42DFD041F665
:1038F00065015E4801F0B6FC002070BD5A4B9A424B
:103900001FD0B2F1804F1CD0A3F57C439A4218D04F
:1039100003F580639A4214D003F580639A4210D075
:1039200003F578439A420CD003F570539A4208D0BD
:10393000A3F594339A4204D041F654014B4801F068
:1039400091FCA368B3F5004F05D033F0020202D01A
:103950000A2B40F08D8026690F2E05D941F65601BD
:10396000424801F07FFC26692B68A468186A20F0A1
:103970001000186299691A6A21F4704122F0A002BD
:1039800041EA063142EA0412996100201A6270BDD0
:10399000354B9A422FD0B2F1804F2CD0A3F57C4307
:1039A0009A4228D003F580639A4224D003F58063BD
:1039B0009A4220D003F578439A421CD003F5705305
:1039C0009A4218D003F580639A4214D003F58063BD
:1039D0009A4210D0A3F598339A420CD003F5806335
:1039E0009A4208D003F580639A4204D041F646011A
:1039F0001E4801F037FCA368B3F5004F04D033F044
:103A0000020201D00A2B29D126690F2E05D941F6D1
:103A10004801164801F026FC26692B68A168186A3F
:103A20001C6A24F001041C629A6920F00A0022F04A
:103A3000F002014342EA06129A610020196270BD49
:103A4000012070BD41F62D01084801F00BFC15E77F
:103A500041F61F01054801F005FCC0E641F64701AB
:103A6000024801F0FFFBCFE700000140B0B20008C0
:103A700041F65501014801F0F5FB6CE7B0B20008D2
:103A8000704700BF90F83C30012B00F068810A6855
:103A900070B502230D46B2F5805F4FF00101044678
:103AA00080F83C1080F83D3071D0B2F5005F00F036
:103AB000B18032F0300340F0FA802368996821F435
:103AC0007F4121F07701402A996000F09C8140F20B
:103AD000E681702A00F0F58000F23C82502A00F066
:103AE0004581602A4CD19F4A93421FD0B3F1804F49
:103AF0001CD0A2F57C42934218D002F5806293421A
:103B000014D002F58062934210D002F578429342BD
:103B10000CD002F57052934208D0A2F59432934231
:103B200004D041F2DA11904801F09CFB6B68B3F5C8
:103B3000004F09D033F0020206D00A2B04D041F224
:103B4000DD11894801F08EFBEE680F2E00F2FB813B
:103B500023686D68186A20F01000186299691A6A63
:103B600021F4704122F0A00242EA051241EA063136
:103B700099611A629A6822F0700242F067029A60B4
:103B80000123002084F83D3084F83C0070BD0368B8
:103B90009A6822F47F4222F077029A60714A934237
:103BA000EED0B3F1804FEBD0A2F57C429342E7D048
:103BB00002F580629342E3D002F580629342DFD047
:103BC00002F580629342DBD002F580629342D7D047
:103BD00002F570429342D3D002F570529342CFD097
:103BE00002F580629342CBD002F580629342C7D047
:103BF000A2F598329342C3D002F580629342BFD0BF
:103C000002F580629342BBD041F29711564801F011
:103C100029FBB5E703689A6822F47F4222F0770215
:103C20009A60504A934217D0B3F1804F14D0A2F556
:103C30007C42934210D002F5806293420CD002F590
:103C40008062934208D002F57842934204D041F258
:103C5000B611454801F006FBAB6833F4405304D07D
:103C600041F2B911404801F0FDFA6B68B3F5004F1D
:103C700009D033F0020206D00A2B04D041F2BA1167
:103C8000394801F0EFFAE8680F2800F25581226800
:103C9000AB6891686D6821F47F412B430B4343EA85
:103CA00000239360936843F48043936068E7402B5C
:103CB0003FF403AF41F28B112B4801F0D3FA2A688D
:103CC000FBE6284A93421FD0B3F1804F1CD0A2F5E7
:103CD0007C42934218D002F58062934214D002F5E0
:103CE0008062934210D002F5784293420CD002F5E4
:103CF0007052934208D0A2F59432934204D041F21C
:103D00009E11194801F0AEFAAB6833F4405304D069
:103D100041F2A111144801F0A5FA6B68B3F5004F08
:103D200009D033F0020206D00A2B04D041F2A211CE
:103D30000D4801F097FAE8680F2800F2E880226841
:103D4000AB6891686D6821F47F412B430B4343EAD4
:103D500000239360936843F07703936010E7022099
:103D6000704700BF00000140B0B200087E4A934295
:103D70001FD0B3F1804F1CD0A2F57C42934218D0E3
:103D800002F58062934214D002F58062934210D013
:103D900002F5784293420CD002F57052934208D05B
:103DA000A2F59432934204D041F2CA116F4801F057
:103DB00059FA6B68B3F5004F09D033F0020206D010
:103DC0000A2B04D041F2CD11684801F04BFAEE689D
:103DD0000F2E00F2AA8023686968186A1D6A25F010
:103DE00001051D629A6920F00A0022F0F00242EA01
:103DF000061201439A6119629A6822F0700242F039
:103E000057029A60BCE6584A93421FD0B3F1804FE4
:103E10001CD0A2F57C42934218D002F580629342F6
:103E200014D002F58062934210D002F5784293429A
:103E30000CD002F57052934208D0A2F5943293420E
:103E400004D041F2EA11494801F00CFA6B68B3F56D
:103E5000004F09D033F0020206D00A2B04D041F201
:103E6000ED11424801F0FEF9EE680F2E56D8236896
:103E70006968186A1D6A25F001051D629A6920F0BB
:103E80000A0022F0F00242EA061201439A61196226
:103E90009A6822F0700242F047029A6070E6102A97
:103EA00005D031D9202A02D0302A7FF469AE2E49BC
:103EB0008B4221D0B3F1804F1ED0A1F57C418B42C3
:103EC0001AD001F580618B4216D001F580618B42DA
:103ED00012D001F578418B420ED001F570518B4222
:103EE0000AD0A1F594318B4206D041F2FD111F4852
:103EF00001F0B8F92A682368996842F0070221F0B6
:103F000070010A439A603BE6002AD0D038E6174891
:103F100041F2A31101F0A6F9E86810E741F2EE11B1
:103F2000124801F09FF9EE68A1E741F2CE110F4867
:103F300001F098F9EE684EE70C4841F2BB1101F030
:103F400091F9E868A3E641F2DE11084801F08AF928
:103F5000EE68FDE5B2F5805F3FF420AEB2F5005F9C
:103F60007FF40EAE5DE600BF00000140B0B2000875
:103F7000304A0368934270B504460D461FD0B3F132
:103F8000804F1CD0A2F57C42934218D002F580628B
:103F9000934214D002F58062934210D002F5784229
:103FA00093420CD002F57052934208D0A2F594329D
:103FB000934204D041F23C211F4801F053F92B6891
:103FC0003BB1043B032B04D941F23D211A4801F0D7
:103FD00049F96B6833F0300306D0402B04D041F22E
:103FE0003E21154801F03EF994F83C30012B1FD0DA
:103FF00001260223294684F83C6084F83D3020469F
:10400000FFF79AFB68B92368DA6822F04002DA60A9
:10401000DA6822F48042DA6084F83D6084F83C007B
:1040200070BD002384F83D60304684F83C3070BD9C
:10403000022070BD00000140B0B20008F0B4364E5E
:1040400003684D698C680A68B04255D0B0F1804F62
:1040500029D0A6F57C46B04237D006F58066B0423E
:1040600033D006F58066B0422FD006F57846B042D0
:104070002BD006F57056B04213D006F58066B042DC
:104080000FD006F58066B0420BD0A6F59836B04248
:1040900007D006F58066B04203D006F58066B042D0
:1040A00009D1C96804E04E68C96823F0700333433E
:1040B00023F440730B4323F080032B430360C4625B
:1040C000826201234361F0BC70474E68134F23F0B6
:1040D00070033343CE6823F44073334323F08003EB
:1040E0002B43B8420360C4628262EAD10B69036366
:1040F00001234361F0BC70474F68CE6823F0700322
:104100003B4323F44073334323F080032B4303608A
:10411000C4628262EAE700BF00000140000401407F
:10412000002873D003683F4A934210B5044637D045
:10413000B3F1804F34D0A2F57C42934230D002F5E7
:10414000806293422CD002F58062934228D002F51F
:104150008062934224D002F58062934220D002F51F
:10416000704293421CD002F57052934218D002F56F
:104170008062934214D002F58062934210D0A2F57F
:10418000983293420CD002F58062934208D002F537
:104190008062934204D040F2D961234801F062F872
:1041A000A36833F010020AD023F04002202A06D080
:1041B000402B04D040F2DA611B4801F053F8236928
:1041C00033F4807202D0B3F5007F21D1A36933F0BC
:1041D000800304D040F2DC61134801F043F894F806
:1041E0003D3003F0FF025BB1022384F83D302068CC
:1041F000211DFFF723FF012384F83D30002010BD6F
:1042000084F83C202046FFF73BFCEDE70120704797
:1042100040F2DB61044801F025F8A36933F0800324
:10422000DDD0D7E700000140B0B200082DE9F84327
:10423000036A364A044623F0100388680F4609686B
:104240002362256AD4F80480A66925F0200526F4A7
:10425000E646944245EA001546EA012634D02C4B46
:104260009C4207D07B68C4F80480A661A3632562E2
:10427000BDE8F883FB6825F080094BB3082B39D0E3
:1042800041F24D71234800F0EDFFFD681F4B49EAF4
:1042900005159C4225F040051CD01D4B9C42E1D1E8
:1042A000BB6933F4007319D041F25B71194800F017
:1042B000D9FF7B6933F4807214D041F25C711548E8
:1042C00000F0D0FF7B690DE0FB6825F08009B3B9F1
:1042D00025F0C005BB6933F40073E5D17B6933F485
:1042E0008072EAD1BA6928F4406848EA820848EA4C
:1042F0008308B7E725F0C00545F08005CDE7082B1A
:10430000BED125F0C00545F08005E3E7000001407F
:1043100000040140B0B2000832F00C0370B516463C
:1043200004460D4602D03C2A40F024812B6823F03D
:104330001003602B04D040F6ED51924800F092FF3C
:10434000AB6833F0020304D040F6EE518D4800F024
:1043500089FF2B6933F0040304D040F6EF518948FC
:1043600000F080FF94F83C30012B00F0098101221D
:10437000022384F83C2084F83D300C2E4DD8DFE831
:1043800006F0074C4C4C884C4C4CC54C4C4C5300E4
:1043900020687D4B984230D0B0F1804F2DD0A3F5EE
:1043A0007C43984229D003F58063984225D003F5D9
:1043B0008063984221D003F5784398421DD003F5DD
:1043C0007053984219D003F58063984215D003F5D5
:1043D0008063984211D0A3F5983398420DD003F52D
:1043E0008063984209D003F58063984205D0654800
:1043F00040F6FB5100F036FF20682946FFF772F8BF
:1044000023682869996941F008019961996921F047
:10441000040199619A6902439A610123002084F89A
:104420003D3084F83C0070BD2068574B984218D04E
:10443000B0F1804F15D0A3F57C43984211D003F51D
:10444000806398420DD003F58063984209D003F54C
:104450007843984205D04B4840F62E6100F002FFA9
:1044600020682946FFF72AF923682869D96941F4A9
:104470000061D961D96921F48061D961DA6942EAC0
:104480000022DA610020012384F83D3084F83C00EA
:10449000C9E720683C4B984220D0B0F1804F1DD036
:1044A000A3F57C43984219D003F58063984215D058
:1044B00003F58063984211D003F5784398420DD0FC
:1044C00003F57053984209D0A3F59433984205D070
:1044D0002C4840F60C6100F0C5FE20682946FFF725
:1044E000A5FE23682869996941F400619961996979
:1044F00021F4806199619A6942EA00229A61002060
:10450000012384F83D3084F83C008CE720681E4B82
:10451000984218D0B0F1804F15D0A3F57C43984253
:1045200011D003F5806398420DD003F58063984263
:1045300009D003F57843984205D0124840F61D6132
:1045400000F090FE20682946FFF742F823682869AA
:10455000D96941F00801D961D96921F00401D96113
:10456000DA690243DA610020012384F83D3084F8DF
:104570003C0058E740F6EC51024800F073FED5E6E7
:10458000022070BDB0B200080000014070B4046A9F
:104590001B4E24F001040462B0428469056A1DD0F8
:1045A000B0F1804F1AD0A6F57C46B04216D006F581
:1045B0008066B04212D006F58066B0420ED006F595
:1045C0007846B0420AD006F57056B04206D0A6F53D
:1045D0009436B04202D044F0010202E024F0030419
:1045E00022431B0125F00A04DBB222F0F00201F0A5
:1045F0000A0121431343836170BC0162704700BF0D
:1046000000000140F8B50546A6482B6883420C46D9
:1046100016462ED0B3F1804F2BD0A34A934228D018
:1046200002F58062934224D002F58062934220D04A
:1046300002F5784293421CD002F57052934218D092
:1046400002F58062934214D002F58062934210D04A
:10465000A2F5983293420CD002F58062934208D0C2
:1046600002F58062934204D040F689518F4800F0F1
:10467000F9FD236833F0020202D00A2B40F0CF800C
:104680006368013B022B63D8A36833F00C0304D0AA
:1046900040F68C51854800F0E5FDE3680F2B5DD8AE
:1046A00095F83C30012B62D00122022385F83C2092
:1046B00085F83D302868002E5BD0042E794B67D0FA
:1046C000082E00F0B280984218D0B0F1804F15D07B
:1046D000A3F57C43984211D003F5806398420DD036
:1046E00003F58063984209D003F57843984205D0DA
:1046F0006E4840F6C55100F0B5FD2868066A26F4FC
:104700008056D4E90037D4E902420662C169066ADC
:1047100021F440711B03120341EA072103F42043F3
:1047200092B221F4704126F4204633430A43C26119
:104730000362C36923F44063C361C36943EA042489
:10474000C4610123002085F83D3085F83C00F8BDA8
:1047500040F68B51554800F085FD95E740F68D51A8
:10476000524800F07FFD95F83C30012B9CD102208F
:10477000F8BDD4E90012E368FFF708FF2B68A068D2
:10478000996921F00C0199619A6902439A61D8E70D
:10479000984220D0B0F1804F1DD0A3F57C439842C1
:1047A00019D003F58063984215D003F580639842D1
:1047B00011D003F5784398420DD003F57053984219
:1047C00009D0A3F59433984205D0384840F6A55156
:1047D00000F048FD2868066A26F01006D4E9003784
:1047E000D4E9024206628169066A21F440711B0124
:1047F000120341EA072103F0A00392B221F47041B1
:1048000026F0A00633430A4382610362836923F4DE
:1048100040638361836943EA0424846191E740F63D
:104820008A51224800F01EFD2AE7984218D0B0F1C4
:10483000804F15D0A3F57C43984211D003F58063D7
:1048400098420DD003F58063984209D003F5784370
:10485000984205D0154840F6B55100F003FD286890
:10486000066A26F48076D4E90031D4E90242066271
:10487000C769066A27F003071B021201394303F4D4
:104880002063D2B221F0F00126F4206633430A43BC
:10489000C2610362C36923F00C03C361C36923438C
:1048A000C3614EE70000014000040040B0B20008C0
:1048B00030B5294B984283B004460D4631D0B0F153
:1048C000804F2ED0A3F57C4398422AD003F5806315
:1048D000984226D003F58063984222D003F57843AE
:1048E00098421ED003F5705398421AD003F58063A6
:1048F000984216D003F58063984212D0A3F59833FE
:1049000098420ED003F5806398420AD003F5806385
:10491000984206D041F6CC111048019200F0A2FC5A
:10492000019A35F00C0308D03C2D06D041F6CD118C
:104930000A48019200F096FC019A236A05F01F05CF
:104940000121A94023EA01032362236A02FA05F543
:104950001D43256203B030BD00000140B0B2000825
:1049600038B505462B4B006898420C4629D0B0F16B
:10497000804F26D0A3F57C43984222D003F5806374
:1049800098421ED003F5806398421AD003F578430D
:10499000984216D003F57053984208D01E4B9842A7
:1049A00034D01E4B984231D01D4B984228D134F060
:1049B000040309D01B4840F2135100F053FC28684F
:1049C00002E034F00C03F5D101222146FFF770FF1D
:1049D0002B68104A93420ED002F5806293420AD0AF
:1049E0009A6802F00702062A03D01A6842F0010210
:1049F0001A60002038BD5A6C42F400425A64EFE756
:104A0000094B984202D0094B9842D3D1002CDBD0FD
:104A1000D0E700BF000001400044014000480140D1
:104A200000180040B0B20008001C00400020004008
:104A300038B50546254B006898420C4629D0B0F1A0
:104A4000804F26D0A3F57C43984222D003F58063A3
:104A500098421ED003F5806398421AD003F578433C
:104A6000984216D003F57053984208D0184B9842DC
:104A700028D0184B984225D0174B98421CD134F0BF
:104A8000040309D0154840F2517100F0EBFB28688F
:104A900002E034F00C03F5D101222146FFF708FFB4
:104AA0002A68936803F00703062B03D0136843F0CA
:104AB00001031360002038BD094B984202D0094B16
:104AC0009842DFD1002CE7D0DCE700BF00000140B6
:104AD000004401400048014000180040B0B2000806
:104AE000001C004000200040504B42689A4270B5C4
:104AF000044600F28C80E36833F4005304D040F69F
:104B0000FC314B4800F0AEFB236933F4806203D0E4
:104B1000B3F5C06F40F0818060694FF6F3731842BF
:104B200040D100283ED02268E5681169A368266953
:104B300021F4405129431161D168E56921F41641FE
:104B4000334321F00C012B430B430343D3605369E0
:104B5000A16923F440730B43B5F5004F5361354B06
:104B60002AD09A4225D003F580639A4221D0FDF7DE
:104B70005DFF63681922A0FB02019A009B0FFCF7FE
:104B80001DF82D492468A1FB00325209642303FB60
:104B900012031B013233A1FB0313120102EB531367
:104BA000A36070BD224840F6FE3100F05BFB6069F7
:104BB000B9E7FDF74BFFDCE79A4234D003F5806399
:104BC0009A4230D0FDF732FF62681B4D92184FF0C9
:104BD00019014FF0000646EB0603A0FB0101FBF7AD
:104BE000EDFFA5FB00325109642303FB1103DB0039
:104BF0003233A5FB03235B0903F007025B00246843
:104C000002EB011203F4F8731344A36070BD40F685
:104C1000FB31074800F026FB6DE740F6FD31044804
:104C200000F020FB78E7FDF711FFCDE7A037A000EB
:104C3000E8B20008001001401F85EB512DE9F0415A
:104C400007460E4690461D463C6801E06B1C06D1A7
:104C5000206836EA0003F9D10020BDE8F08135B1C3
:104C6000FCF746FCA0EB08008542EDD23C68E36807
:104C700023F4D073E3606369202223F00103002151
:104C80006361032087F8392087F8381087F83A20C5
:104C9000E3E700BF704700BF00287AD0826938B5CB
:104CA00004460368002A4FD045498B4279D0A1F5CC
:104CB0004C418B4275D001F580618B4271D001F57A
:104CC0004C418B426DD040F24B113E4800F0CAFA85
:104CD000A269002A65D1A36833F4805304D04FF44D
:104CE000A971384800F0BEFAE36933F4004304D0F8
:104CF00040F25311334800F0B5FA94F8393003F01C
:104D0000FF02002B47D02268242384F83930D3686F
:104D100023F40053D3602046FFF7E6FE23681A69A8
:104D200022F490421A615A6922F02A025A61DA6822
:104D30000025202142F40052DA602846E56384F819
:104D4000391084F83A1038BD1D4A9342C3D0A2F5F9
:104D50004C429342BFD002F580629342BBD002F531
:104D600080629342B7D002F580629342B3D002F5DD
:104D700044429342AFD0A2F51C429342ABD002F51D
:104D800080629342A7D04FF4A8710E4800F06AFAEF
:104D9000A1E70120704784F838202046FFF77AFF0A
:104DA000B1E722F40073B3F5807F94D0B2F5007FB1
:104DB00091D04FF4A671034800F054FA8BE700BF7E
:104DC00000100140E8B200082DE9F0430F4690F8CA
:104DD0003910202983B030D1002F32D0019282B314
:104DE000984690F83830012B044626D00025012142
:104DF0002123C56380F8381080F83930FCF778FB40
:104E0000019A84F838508146A284E284E58CADB2E0
:104E100043464A468021204655B3E58CA668013DAD
:104E2000ADB2B6F5805FE5840FD0FFF707FFE8B9B4
:104E300023683A785A600137E8E7022003B0BDE8FA
:104E4000F083012003B0BDE8F08343464A46802149
:104E50002046FFF7F3FE48B93B8821682269C3F377
:104E600008034B60002AE6D10237CFE70320E5E7CD
:104E70004021FFF7E3FE0028F8D1202384F83930E1
:104E8000DCE700BF70B586B000F086F900B1FEE740
:104E900000F02EF9044600B1FEE700F077F9054670
:104EA0003248334E013D04F0F1FF04E015F8011FD4
:104EB00004F0ECFF013400F06DF9A0423046F5D863
:104EC0002C4805F057F800F069F830B100F094FA7A
:104ED0000146294804F0DAFFFEE700F07DF830B122
:104EE00000F08AFA0146254804F0D0FFFEE706AB41
:104EF000234943F8080D234A0092CDE9011301220A
:104F0000214B22494FF4A04000F0C2FA0446C0B938
:104F10001F4E00F073F801460028FAD005AA049845
:104F200000F0A8FC631C054690B9059A013216D022
:104F3000304605F01FF82846FCF772F801231C469E
:104F4000E7E700F059FA0146124804F09FFFFEE738
:104F500000F052FA0146104804F098FFFEE7142CC6
:104F6000EDD9FCF76DF82B46E9E700BFF0B9000872
:104F7000F8B9000800BA000804BA000820BA00080E
:104F800094BA0008B0040020AC040020E005002022
:104F900088BA000844BA000864BA000838B50C4B57
:104FA0000C4ADA6002254FF47A544FF4007199608C
:104FB0002A4620461021C3E90054FCF7B5F920B970
:104FC0006420FCF757F800B938BD062038BD00BF93
:104FD000FC610020E45D002008B54FF480710548B5
:104FE000FCF73EF818B9044B01221A7408BD0620DC
:104FF00008BD00BF245E0020FC610020074B18683C
:10500000431C08D0064A1368984204D0054B106030
:1050100003EB802070470020704700BFB8040020D9
:10502000B4040020E4550020F8B5124F124D134986
:105030001348FCF725F83E682C68124A0F4804EB29
:10504000462302EB4302023A002330F8231022F8F1
:10505000021F0133102BF8D11034B4F5007F2C60FF
:1050600006DB0949C6F1010200230E603A602B609D
:10507000F8BD00BF24600020E0550020E45D002062
:10508000245F0020E4550020B8040020F8B5124F3A
:10509000124D13491348FBF7F3FF3E682C68124A80
:1050A0000F4804EB462302EB4302023A002330F898
:1050B000231022F8021F0133102BF8D11034B4F55D
:1050C000007F2C6006DB0949C6F1010200230E6057
:1050D0003A602B60F8BD00BF24600020E05500203E
:1050E000E45D0020245E0020E4550020B804002088
:1050F00070B5002488B0CDE90544204B01941A6CAA
:105100001F4842F480221A641A6C02F48022019231
:10511000019A02941A6B42F002021A631B6B03F0AD
:1051200002030293022207234FF4406503A9CDE94D
:1051300003520793029E134DFCF78EFD124B4FF462
:10514000E1310C2218469C60C3E90344C3E90644DC
:10515000C3E900515A61FFF79FFD58B90246014665
:1051600004462720FCF7E6F92720FCF729FA204619
:1051700008B070BD062008B070BD00BF0038024006
:1051800000040240004800401062002000487047C0
:10519000286000200C20704770B594B0FCF782F9AD
:1051A000002854D12B4A0090116C2B4B41F08051B8
:1051B0001164126C02F080520092009A01901A68F9
:1051C00042F440421A601B6803F4404301934FF4D9
:1051D00080324FF480030820012602254FF4B47179
:1051E000CDE907620E93072206230F9007A8019CC2
:1051F0000D9511951091CDE91223FDF719FF30BBE4
:10520000FDF792FA18BB0F244FF4A0524FF48053CD
:10521000CDE90350052102A80294CDE90523FDF74D
:10522000F7FA044698B90D4A0D4B07CA83E8070000
:105230002046FBF799FE3046FBF796FE2846FBF723
:1052400093FE0320FBF790FE204614B070BD0620AD
:1052500014B070BD0038024000700040107AFF1F8B
:1052600028600020FEE700BF00B583B002A94FF41C
:105270007A7341F8040D01220348FFF7A5FD019858
:1052800003B05DF804FB00BF10620020704700BF50
:10529000704700BF704700BF704700BF014BD86B1D
:1052A000FCF704BCB0610020FCF716B9FEE700BFB4
:1052B000FEE700BFFEE700BFFEE700BF70B5161EA9
:1052C00007DD0C468D19AFF3008004F8010BA542F1
:1052D000F9D1304670BD00BF70B5161E07DD0C4613
:1052E0008D1914F8010BFFF7BFFFA542F9D1304625
:1052F00070BD00BF4FF0FF30704700BF4FF4005348
:105300004B600020704700BF0120704700207047AD
:105310000C490D4A0B6810B50C4C121B2BB11844EC
:10532000904207D80860184610BD094B0B6018441E
:105330009042F7D904F0E2F90C2303604FF0FF33F9
:10534000184610BD34600020000005200004000055
:10535000586200201049114BD1F8882042F47002A5
:1053600010B4C1F888201A680D4C002042F00102E8
:105370001A6098601A6822F0847222F480321A60EF
:105380005C601A684FF0006422F480221A60D860D2
:105390008C605DF8044B704700ED00E0003802407F
:1053A000103000240D488546FFF7D4FF0C480D4906
:1053B0000D4A002302E0D458C4500433C4188C4270
:1053C000F9D30A4A0A4C002301E013600432A242D6
:1053D000FBD304F099F9FFF755FDFEE70000052027
:1053E0000000002054050020F8DE0F0860050020B2
:1053F00054620020FEE7000006289ABF024B53F8D3
:1054000020000020704700BFB0BA0008F8B5066859
:10541000416A0546304601F023F8286A00F094FB03
:105420006F68013F16D4BC002B691959013F304603
:1054300021B1096801F014F82B691959304601F0BF
:105440000FF8EB683046195901F00AF87B1CA4F1FB
:105450000404E9D1E969304601F002F8A96930464F
:1054600000F0FEFF6969304600F0FAFF2969304616
:1054700000F0F6FFE968304600F0F2FFA968304618
:1054800000F0EEFF29463046BDE8F84000F0E8BFE6
:105490002DE9F04F2DED048B95B00024249DB0F143
:1054A000000C2C6040F36981002900F06681A24263
:1054B00040F36381002B00F060811D1F229B1F1FA2
:1054C0003E462B4653F8040F002804F1010440F334
:1054D000548156F8040F002800F04F81A242F1D108
:1054E000239B002B00F04981CDE9081C0A931A4642
:1054F000B7EE007A0023F2EC017AF5EEC07AF1EE15
:1055000010FA03F1010300F13F81F4EEC77AF1EEE6
:1055100010FA00F33981A342EDD114AB002243F815
:10552000182DDDE90801802200F044FF064600281E
:1055300040F024819FEDC48A0B95814680463E460B
:10554000AB460DF1350356F8042F5BF8041F0793A3
:105550000DAB069313AB059312AB049311AB0393FE
:1055600010AB02930FAB01930DF1360300250093AE
:105570004FF0010A41F6D52C0E98B44BADF836C069
:105580008DED128A8DED138ACDE90F5511958DF8A9
:1055900034508DF835A000F01FFCD044002840F0B6
:1055A000F8800F9B44459944CBDCA14409EB890961
:1055B000064609F1590211ABDDE9080111960B9D70
:1055C00000F0F8FE0646002840F0D8805246282118
:1055D000119800F013FF8146002800F0DF80119839
:1055E000C9F800004FEA8408C9F804404146524611
:1055F00000F004FFC9F80800002800F0CC805246F3
:105600004146119800F0FAFEC9F80C00002800F09D
:10561000C28041465246119800F0F0FEC9F81000D1
:10562000002800F0B88032462146119800F0E6FECE
:10563000C9F81400002800F0AE8063001946324615
:105640001198089300F0DAFEC9F81800002800F05D
:10565000A28032462146119800F0D0FEC9F81C0005
:10566000002800F0988000237F22D9F81C10CA542B
:105670000133A342F9DB9FED748ADFED759A9FED4C
:10568000759ADFED758ADDF828B04FF0000A41F613
:10569000D52633E09DF83C30002B40F0A8804645ED
:1056A000BDF8402002D0B24240F0A980DDED137A6F
:1056B000DDED126ABBEC017AD9F8180077EEE66AE4
:1056C00047F6FF7326EE877A77EEC77A67EEA97AF8
:1056D000F4EEC97AF1EE10FA0ADAF4EEE87AF1EEB5
:1056E00010FA89BFFDEEE77A5C4B17EE903A1BB2D9
:1056F0000AF1010AA2454352164651DA0FAB07934D
:10570000D9F814305344069313AA12AB05920493AC
:10571000D9F8103055F8041F57F8042F8DED128A70
:105720004FEA8A0C63440393D9F80C308DED138A49
:1057300063440293D9F8083010A8634400900193A1
:105740004FF0010C1198414B8DF83CC041F6D52823
:10575000ADF8408000F040FB4FEA4A01002899D0A4
:1057600006464846FFF752FE3046FFF745FE5146D3
:1057700002463B4801F0F8F800E00326304615B039
:10578000BDEC048BBDE8F08F364801F0EDF8032640
:10579000F4E70646F2E74846FFF738FE0126EDE754
:1057A00009F120030293D9F814300193D9F810308D
:1057B000009390462146D9E90223119800F0E6F8BB
:1057C000064600283BD1D9F8200000F001FB4045F7
:1057D000044626D108991198012200F00FFEC9F85D
:1057E00024000028D7D0249BC3F80090C6E7484681
:1057F000FFF70CFE1C4801F0B7F80326BEE7304661
:1058000000F0BCFD0446BDF8400000F0B7FD2246A4
:10581000009053460AF1FF31144801F0A5F8032621
:10582000ACE7404600F0AAFD0546204600F0A6FD84
:10583000294602460E4801F097F803269EE748469F
:10584000FFF7E4FD9AE700BF00000000C00400205D
:105850000000804400FEFF46000000C70080FFFFFC
:1058600060BB000830BB000894BB0008B8BB000850
:1058700038BC0008B8B3F8B599B392B30446D0E980
:10588000080615463246676800F0A2F940BB4FF0A3
:10589000FF32002FD4E906C32A6020DDDA19013A6D
:1058A000124F013B864605E001311970934200F129
:1058B000010014D013F9011F0F29F5DD36F910107E
:1058C0003CF910408C42F1DCB942EFDB2860934296
:1058D00083F800E036F9107000F10100EAD10020F1
:1058E000F8BD0320F8BD0320704700BF0080FFFF14
:1058F0002DE9F0410646416B006800F0B1FD716A88
:1059000081B17469013C0AD4A50049593068013C51
:1059100000F0A6FD621CA5F10405716AF5D130689E
:1059200000F09EFD336A2BB37269B2F101081DD4F9
:105930004FEA8807D95991B1B369DC59013C0AD4BF
:10594000A500485901F054FE336A013CD959631C43
:10595000A5F10405F5D1306800F082FD336A08F145
:10596000FF38B8F1FF3FA7F10407E3D119463068CB
:1059700000F076FDF06801F08BFA706800F0B0FD81
:1059800031463068BDE8F04100F06ABD2DE9F04FC6
:1059900085B01446109A0291002515603821012225
:1059A0009946064600F02AFD002874D002460546B6
:1059B0004FF4807142F8046B304600F067FD0746F3
:1059C000002861D15F49A96005F10C02304601F061
:1059D0000BFA0746002857D1E86801F0C3FA00F037
:1059E000DBFC029B0F9AAC619900C5E90403EA61F4
:1059F00030460122039100F001FD04462862002890
:105A00007CD0029B002B7EDDDDF83880AA69BB4686
:105A100052F82B1030460122890000F0EFFC2B6A6F
:105A200044F82B0053F82B304FEA8B0A002B65D03B
:105A3000AA6952F82B100029C8BF002408DC2FE007
:105A4000AA6952F80A30A3422ADD2B6A53F80A30B9
:105A5000D9F80020D8F8001052F8242051F824106A
:105A600003EB840300933046072301F041FD01342A
:105A70000028E5D002902846FFF73AFF029B1F4618
:105A8000384605B0BDE8F08F2846FFF731FF3846AD
:105A900005B0BDE8F08F0127384605B0BDE8F08FAE
:105AA000029B0BF1010B5B4508F1040809F10409A5
:105AB00001D02C6AACE703990122304600F09EFC2D
:105AC0006862D8B1334600244FF400490646984630
:105AD00007E05C45A3F80090A3F80290A3F80490B7
